{
  "contractName": "SchoolRegistry",
  "abi": [
    {
      "constant": true,
      "inputs": [
        {
          "name": "",
          "type": "address"
        }
      ],
      "name": "schools",
      "outputs": [
        {
          "name": "name",
          "type": "string"
        },
        {
          "name": "website",
          "type": "string"
        }
      ],
      "payable": false,
      "stateMutability": "view",
      "type": "function"
    },
    {
      "constant": true,
      "inputs": [],
      "name": "owner",
      "outputs": [
        {
          "name": "",
          "type": "address"
        }
      ],
      "payable": false,
      "stateMutability": "view",
      "type": "function"
    },
    {
      "constant": false,
      "inputs": [
        {
          "name": "newOwner",
          "type": "address"
        }
      ],
      "name": "transferOwnership",
      "outputs": [],
      "payable": false,
      "stateMutability": "nonpayable",
      "type": "function"
    },
    {
      "anonymous": false,
      "inputs": [
        {
          "indexed": false,
          "name": "_school",
          "type": "address"
        },
        {
          "indexed": false,
          "name": "_newName",
          "type": "string"
        },
        {
          "indexed": false,
          "name": "_newWebsite",
          "type": "string"
        }
      ],
      "name": "SchoolInfoUpdated",
      "type": "event"
    },
    {
      "anonymous": false,
      "inputs": [
        {
          "indexed": true,
          "name": "previousOwner",
          "type": "address"
        },
        {
          "indexed": true,
          "name": "newOwner",
          "type": "address"
        }
      ],
      "name": "OwnershipTransferred",
      "type": "event"
    },
    {
      "constant": false,
      "inputs": [
        {
          "name": "_schoolAddress",
          "type": "address"
        },
        {
          "name": "_schoolName",
          "type": "string"
        },
        {
          "name": "_schoolWebsite",
          "type": "string"
        }
      ],
      "name": "editSchool",
      "outputs": [],
      "payable": false,
      "stateMutability": "nonpayable",
      "type": "function"
    },
    {
      "constant": true,
      "inputs": [
        {
          "name": "_schoolAddress",
          "type": "address"
        }
      ],
      "name": "getSchoolInfo",
      "outputs": [
        {
          "name": "_name",
          "type": "string"
        },
        {
          "name": "_website",
          "type": "string"
        }
      ],
      "payable": false,
      "stateMutability": "view",
      "type": "function"
    }
  ],
  "bytecode": "0x6080604052336000806101000a81548173ffffffffffffffffffffffffffffffffffffffff021916908373ffffffffffffffffffffffffffffffffffffffff160217905550610bc0806100536000396000f30060806040526004361061006d576000357c0100000000000000000000000000000000000000000000000000000000900463ffffffff1680635c7e729f14610072578063727790fa146101415780638da5cb5b14610269578063e97e3f17146102c0578063f2fde38b146103e8575b600080fd5b34801561007e57600080fd5b5061013f600480360381019080803573ffffffffffffffffffffffffffffffffffffffff169060200190929190803590602001908201803590602001908080601f0160208091040260200160405190810160405280939291908181526020018383808284378201915050505050509192919290803590602001908201803590602001908080601f016020809104026020016040519081016040528093929190818152602001838380828437820191505050505050919291929050505061042b565b005b34801561014d57600080fd5b50610182600480360381019080803573ffffffffffffffffffffffffffffffffffffffff169060200190929190505050610659565b604051808060200180602001838103835285818151815260200191508051906020019080838360005b838110156101c65780820151818401526020810190506101ab565b50505050905090810190601f1680156101f35780820380516001836020036101000a031916815260200191505b50838103825284818151815260200191508051906020019080838360005b8381101561022c578082015181840152602081019050610211565b50505050905090810190601f1680156102595780820380516001836020036101000a031916815260200191505b5094505050505060405180910390f35b34801561027557600080fd5b5061027e6107ad565b604051808273ffffffffffffffffffffffffffffffffffffffff1673ffffffffffffffffffffffffffffffffffffffff16815260200191505060405180910390f35b3480156102cc57600080fd5b50610301600480360381019080803573ffffffffffffffffffffffffffffffffffffffff1690602001909291905050506107d2565b604051808060200180602001838103835285818151815260200191508051906020019080838360005b8381101561034557808201518184015260208101905061032a565b50505050905090810190601f1680156103725780820380516001836020036101000a031916815260200191505b50838103825284818151815260200191508051906020019080838360005b838110156103ab578082015181840152602081019050610390565b50505050905090810190601f1680156103d85780820380516001836020036101000a031916815260200191505b5094505050505060405180910390f35b3480156103f457600080fd5b50610429600480360381019080803573ffffffffffffffffffffffffffffffffffffffff16906020019092919050505061099a565b005b6000809054906101000a900473ffffffffffffffffffffffffffffffffffffffff1673ffffffffffffffffffffffffffffffffffffffff163373ffffffffffffffffffffffffffffffffffffffff1614151561048657600080fd5b604080519081016040528083815260200182815250600160008573ffffffffffffffffffffffffffffffffffffffff1673ffffffffffffffffffffffffffffffffffffffff16815260200190815260200160002060008201518160000190805190602001906104f6929190610aef565b506020820151816001019080519060200190610513929190610aef565b509050507f4a898bd5618ad0f4360b69c706377663a71bff2b1f96436458751ab79f6df1ba838383604051808473ffffffffffffffffffffffffffffffffffffffff1673ffffffffffffffffffffffffffffffffffffffff1681526020018060200180602001838103835285818151815260200191508051906020019080838360005b838110156105b1578082015181840152602081019050610596565b50505050905090810190601f1680156105de5780820380516001836020036101000a031916815260200191505b50838103825284818151815260200191508051906020019080838360005b838110156106175780820151818401526020810190506105fc565b50505050905090810190601f1680156106445780820380516001836020036101000a031916815260200191505b509550505050505060405180910390a1505050565b6001602052806000526040600020600091509050806000018054600181600116156101000203166002900480601f0160208091040260200160405190810160405280929190818152602001828054600181600116156101000203166002900480156107055780601f106106da57610100808354040283529160200191610705565b820191906000526020600020905b8154815290600101906020018083116106e857829003601f168201915b505050505090806001018054600181600116156101000203166002900480601f0160208091040260200160405190810160405280929190818152602001828054600181600116156101000203166002900480156107a35780601f10610778576101008083540402835291602001916107a3565b820191906000526020600020905b81548152906001019060200180831161078657829003601f168201915b5050505050905082565b6000809054906101000a900473ffffffffffffffffffffffffffffffffffffffff1681565b606080600160008473ffffffffffffffffffffffffffffffffffffffff1673ffffffffffffffffffffffffffffffffffffffff168152602001908152602001600020600001600160008573ffffffffffffffffffffffffffffffffffffffff1673ffffffffffffffffffffffffffffffffffffffff168152602001908152602001600020600101818054600181600116156101000203166002900480601f0160208091040260200160405190810160405280929190818152602001828054600181600116156101000203166002900480156108ee5780601f106108c3576101008083540402835291602001916108ee565b820191906000526020600020905b8154815290600101906020018083116108d157829003601f168201915b50505050509150808054600181600116156101000203166002900480601f01602080910402602001604051908101604052809291908181526020018280546001816001161561010002031660029004801561098a5780601f1061095f5761010080835404028352916020019161098a565b820191906000526020600020905b81548152906001019060200180831161096d57829003601f168201915b5050505050905091509150915091565b6000809054906101000a900473ffffffffffffffffffffffffffffffffffffffff1673ffffffffffffffffffffffffffffffffffffffff163373ffffffffffffffffffffffffffffffffffffffff161415156109f557600080fd5b600073ffffffffffffffffffffffffffffffffffffffff168173ffffffffffffffffffffffffffffffffffffffff1614151515610a3157600080fd5b8073ffffffffffffffffffffffffffffffffffffffff166000809054906101000a900473ffffffffffffffffffffffffffffffffffffffff1673ffffffffffffffffffffffffffffffffffffffff167f8be0079c531659141344cd1fd0a4f28419497f9722a3daafe3b4186f6b6457e060405160405180910390a3806000806101000a81548173ffffffffffffffffffffffffffffffffffffffff021916908373ffffffffffffffffffffffffffffffffffffffff16021790555050565b828054600181600116156101000203166002900490600052602060002090601f016020900481019282601f10610b3057805160ff1916838001178555610b5e565b82800160010185558215610b5e579182015b82811115610b5d578251825591602001919060010190610b42565b5b509050610b6b9190610b6f565b5090565b610b9191905b80821115610b8d576000816000905550600101610b75565b5090565b905600a165627a7a72305820236a4e46beda32a5a28ab119f8b9440b89de2665a20d51461880ca430abe8fb40029",
  "source": "pragma solidity ^0.4.21;\r\n\r\nimport './ownership/Ownable.sol';\r\n\r\n//School registry\r\ncontract SchoolRegistry is Ownable {\r\n\r\n    struct School { \r\n      string name;\r\n      string website;\r\n    }\r\n\r\n    mapping(address => School) public schools;\r\n\r\n    event SchoolInfoUpdated(address _school, string _newName, string _newWebsite);\r\n  \r\n    /**\r\n     * @dev Allows the owner to edit a school\r\n     * @param _schoolAddress The address to be edited.\r\n     * @param _schoolName The name to be edited.\r\n     * @param _schoolWebsite The website to be edited.\r\n     */\r\n    function editSchool(address _schoolAddress, string _schoolName, string _schoolWebsite) public onlyOwner {\r\n       schools[_schoolAddress] = School(_schoolName, _schoolWebsite);\r\n       SchoolInfoUpdated(_schoolAddress, _schoolName, _schoolWebsite);\r\n    }\r\n\r\n    /**\r\n     * @dev Return school information\r\n     * @param _schoolAddress The address to retrieve information for.\r\n     */\r\n     function getSchoolInfo(address _schoolAddress) public view returns (string _name, string _website) {\r\n         return (schools[_schoolAddress].name , schools[_schoolAddress].website);\r\n     }\r\n    \r\n}",
  "sourcePath": "D:\\fork\\transcrypto\\transcrypto-frontend\\contracts\\SchoolRegistry.sol",
  "compiler": {
    "name": "solc",
    "version": "0.4.23+commit.124ca40d.Emscripten.clang"
  },
  "schemaVersion": "2.0.0",
  "updatedAt": "2018-04-22T14:53:55.666Z"
}